{
  "_format": "hh-sol-artifact-1",
  "contractName": "MetaKozo",
  "sourceName": "contracts/MetaKozo.sol",
  "abi": [
    {
      "inputs": [
        {
          "internalType": "string",
          "name": "_name",
          "type": "string"
        },
        {
          "internalType": "string",
          "name": "_symbol",
          "type": "string"
        }
      ],
      "stateMutability": "nonpayable",
      "type": "constructor"
    },
    {
      "inputs": [],
      "name": "ApprovalCallerNotOwnerNorApproved",
      "type": "error"
    },
    {
      "inputs": [],
      "name": "ApprovalQueryForNonexistentToken",
      "type": "error"
    },
    {
      "inputs": [],
      "name": "ApprovalToCurrentOwner",
      "type": "error"
    },
    {
      "inputs": [],
      "name": "ApproveToCaller",
      "type": "error"
    },
    {
      "inputs": [],
      "name": "BalanceQueryForZeroAddress",
      "type": "error"
    },
    {
      "inputs": [],
      "name": "MintToZeroAddress",
      "type": "error"
    },
    {
      "inputs": [],
      "name": "MintZeroQuantity",
      "type": "error"
    },
    {
      "inputs": [
        {
          "internalType": "address",
          "name": "operator",
          "type": "address"
        }
      ],
      "name": "OperatorNotAllowed",
      "type": "error"
    },
    {
      "inputs": [],
      "name": "OwnerQueryForNonexistentToken",
      "type": "error"
    },
    {
      "inputs": [],
      "name": "TransferCallerNotOwnerNorApproved",
      "type": "error"
    },
    {
      "inputs": [],
      "name": "TransferFromIncorrectOwner",
      "type": "error"
    },
    {
      "inputs": [],
      "name": "TransferToNonERC721ReceiverImplementer",
      "type": "error"
    },
    {
      "inputs": [],
      "name": "TransferToZeroAddress",
      "type": "error"
    },
    {
      "inputs": [],
      "name": "URIQueryForNonexistentToken",
      "type": "error"
    },
    {
      "anonymous": false,
      "inputs": [
        {
          "indexed": true,
          "internalType": "address",
          "name": "owner",
          "type": "address"
        },
        {
          "indexed": true,
          "internalType": "address",
          "name": "approved",
          "type": "address"
        },
        {
          "indexed": true,
          "internalType": "uint256",
          "name": "tokenId",
          "type": "uint256"
        }
      ],
      "name": "Approval",
      "type": "event"
    },
    {
      "anonymous": false,
      "inputs": [
        {
          "indexed": true,
          "internalType": "address",
          "name": "owner",
          "type": "address"
        },
        {
          "indexed": true,
          "internalType": "address",
          "name": "operator",
          "type": "address"
        },
        {
          "indexed": false,
          "internalType": "bool",
          "name": "approved",
          "type": "bool"
        }
      ],
      "name": "ApprovalForAll",
      "type": "event"
    },
    {
      "anonymous": false,
      "inputs": [
        {
          "indexed": true,
          "internalType": "address",
          "name": "_from",
          "type": "address"
        },
        {
          "indexed": false,
          "internalType": "uint256",
          "name": "_tokenId",
          "type": "uint256"
        }
      ],
      "name": "Minted",
      "type": "event"
    },
    {
      "anonymous": false,
      "inputs": [
        {
          "indexed": true,
          "internalType": "address",
          "name": "previousOwner",
          "type": "address"
        },
        {
          "indexed": true,
          "internalType": "address",
          "name": "newOwner",
          "type": "address"
        }
      ],
      "name": "OwnershipTransferred",
      "type": "event"
    },
    {
      "anonymous": false,
      "inputs": [
        {
          "indexed": false,
          "internalType": "address",
          "name": "account",
          "type": "address"
        }
      ],
      "name": "Paused",
      "type": "event"
    },
    {
      "anonymous": false,
      "inputs": [
        {
          "indexed": true,
          "internalType": "address",
          "name": "from",
          "type": "address"
        },
        {
          "indexed": true,
          "internalType": "address",
          "name": "to",
          "type": "address"
        },
        {
          "indexed": true,
          "internalType": "uint256",
          "name": "tokenId",
          "type": "uint256"
        }
      ],
      "name": "Transfer",
      "type": "event"
    },
    {
      "anonymous": false,
      "inputs": [
        {
          "indexed": false,
          "internalType": "address",
          "name": "account",
          "type": "address"
        }
      ],
      "name": "Unpaused",
      "type": "event"
    },
    {
      "inputs": [
        {
          "internalType": "address",
          "name": "to",
          "type": "address"
        },
        {
          "internalType": "uint256",
          "name": "tokenId",
          "type": "uint256"
        }
      ],
      "name": "approve",
      "outputs": [],
      "stateMutability": "nonpayable",
      "type": "function"
    },
    {
      "inputs": [
        {
          "internalType": "address",
          "name": "owner",
          "type": "address"
        }
      ],
      "name": "balanceOf",
      "outputs": [
        {
          "internalType": "uint256",
          "name": "",
          "type": "uint256"
        }
      ],
      "stateMutability": "view",
      "type": "function"
    },
    {
      "inputs": [
        {
          "internalType": "uint8",
          "name": "_wlCount",
          "type": "uint8"
        },
        {
          "internalType": "bytes32[]",
          "name": "_merkleProof",
          "type": "bytes32[]"
        }
      ],
      "name": "checkMint",
      "outputs": [
        {
          "internalType": "bool",
          "name": "isOk",
          "type": "bool"
        }
      ],
      "stateMutability": "view",
      "type": "function"
    },
    {
      "inputs": [],
      "name": "collectionSize",
      "outputs": [
        {
          "internalType": "uint256",
          "name": "",
          "type": "uint256"
        }
      ],
      "stateMutability": "view",
      "type": "function"
    },
    {
      "inputs": [
        {
          "internalType": "uint256",
          "name": "_quantity",
          "type": "uint256"
        },
        {
          "internalType": "uint8",
          "name": "_wlCount",
          "type": "uint8"
        },
        {
          "internalType": "bytes32[]",
          "name": "_merkleProof",
          "type": "bytes32[]"
        }
      ],
      "name": "firstMint",
      "outputs": [],
      "stateMutability": "payable",
      "type": "function"
    },
    {
      "inputs": [],
      "name": "firstSaleMaxMintPerAddress",
      "outputs": [
        {
          "internalType": "uint256",
          "name": "",
          "type": "uint256"
        }
      ],
      "stateMutability": "view",
      "type": "function"
    },
    {
      "inputs": [
        {
          "internalType": "uint256",
          "name": "tokenId",
          "type": "uint256"
        }
      ],
      "name": "getApproved",
      "outputs": [
        {
          "internalType": "address",
          "name": "",
          "type": "address"
        }
      ],
      "stateMutability": "view",
      "type": "function"
    },
    {
      "inputs": [],
      "name": "getTimestamp",
      "outputs": [
        {
          "internalType": "uint256",
          "name": "",
          "type": "uint256"
        }
      ],
      "stateMutability": "view",
      "type": "function"
    },
    {
      "inputs": [
        {
          "internalType": "address",
          "name": "owner",
          "type": "address"
        },
        {
          "internalType": "address",
          "name": "operator",
          "type": "address"
        }
      ],
      "name": "isApprovedForAll",
      "outputs": [
        {
          "internalType": "bool",
          "name": "",
          "type": "bool"
        }
      ],
      "stateMutability": "view",
      "type": "function"
    },
    {
      "inputs": [],
      "name": "maxPerTX",
      "outputs": [
        {
          "internalType": "uint8",
          "name": "",
          "type": "uint8"
        }
      ],
      "stateMutability": "view",
      "type": "function"
    },
    {
      "inputs": [],
      "name": "merkleRoot",
      "outputs": [
        {
          "internalType": "bytes32",
          "name": "",
          "type": "bytes32"
        }
      ],
      "stateMutability": "view",
      "type": "function"
    },
    {
      "inputs": [],
      "name": "name",
      "outputs": [
        {
          "internalType": "string",
          "name": "",
          "type": "string"
        }
      ],
      "stateMutability": "view",
      "type": "function"
    },
    {
      "inputs": [],
      "name": "owner",
      "outputs": [
        {
          "internalType": "address",
          "name": "",
          "type": "address"
        }
      ],
      "stateMutability": "view",
      "type": "function"
    },
    {
      "inputs": [
        {
          "internalType": "uint256",
          "name": "_quantity",
          "type": "uint256"
        }
      ],
      "name": "ownerMint",
      "outputs": [],
      "stateMutability": "nonpayable",
      "type": "function"
    },
    {
      "inputs": [
        {
          "internalType": "uint256",
          "name": "tokenId",
          "type": "uint256"
        }
      ],
      "name": "ownerOf",
      "outputs": [
        {
          "internalType": "address",
          "name": "",
          "type": "address"
        }
      ],
      "stateMutability": "view",
      "type": "function"
    },
    {
      "inputs": [],
      "name": "pause",
      "outputs": [],
      "stateMutability": "nonpayable",
      "type": "function"
    },
    {
      "inputs": [],
      "name": "paused",
      "outputs": [
        {
          "internalType": "bool",
          "name": "",
          "type": "bool"
        }
      ],
      "stateMutability": "view",
      "type": "function"
    },
    {
      "inputs": [],
      "name": "preCost",
      "outputs": [
        {
          "internalType": "uint64",
          "name": "",
          "type": "uint64"
        }
      ],
      "stateMutability": "view",
      "type": "function"
    },
    {
      "inputs": [],
      "name": "publicCost",
      "outputs": [
        {
          "internalType": "uint64",
          "name": "",
          "type": "uint64"
        }
      ],
      "stateMutability": "view",
      "type": "function"
    },
    {
      "inputs": [
        {
          "internalType": "uint256",
          "name": "quantity",
          "type": "uint256"
        }
      ],
      "name": "publicMint",
      "outputs": [],
      "stateMutability": "payable",
      "type": "function"
    },
    {
      "inputs": [],
      "name": "renounceOwnership",
      "outputs": [],
      "stateMutability": "nonpayable",
      "type": "function"
    },
    {
      "inputs": [],
      "name": "revealed",
      "outputs": [
        {
          "internalType": "bool",
          "name": "",
          "type": "bool"
        }
      ],
      "stateMutability": "view",
      "type": "function"
    },
    {
      "inputs": [
        {
          "internalType": "address",
          "name": "from",
          "type": "address"
        },
        {
          "internalType": "address",
          "name": "to",
          "type": "address"
        },
        {
          "internalType": "uint256",
          "name": "tokenId",
          "type": "uint256"
        }
      ],
      "name": "safeTransferFrom",
      "outputs": [],
      "stateMutability": "nonpayable",
      "type": "function"
    },
    {
      "inputs": [
        {
          "internalType": "address",
          "name": "from",
          "type": "address"
        },
        {
          "internalType": "address",
          "name": "to",
          "type": "address"
        },
        {
          "internalType": "uint256",
          "name": "tokenId",
          "type": "uint256"
        },
        {
          "internalType": "bytes",
          "name": "data",
          "type": "bytes"
        }
      ],
      "name": "safeTransferFrom",
      "outputs": [],
      "stateMutability": "nonpayable",
      "type": "function"
    },
    {
      "inputs": [],
      "name": "saleStartTime1st",
      "outputs": [
        {
          "internalType": "uint256",
          "name": "",
          "type": "uint256"
        }
      ],
      "stateMutability": "view",
      "type": "function"
    },
    {
      "inputs": [],
      "name": "saleStartTime2nd",
      "outputs": [
        {
          "internalType": "uint256",
          "name": "",
          "type": "uint256"
        }
      ],
      "stateMutability": "view",
      "type": "function"
    },
    {
      "inputs": [],
      "name": "saleStartTimePublic",
      "outputs": [
        {
          "internalType": "uint256",
          "name": "",
          "type": "uint256"
        }
      ],
      "stateMutability": "view",
      "type": "function"
    },
    {
      "inputs": [
        {
          "internalType": "uint256",
          "name": "_quantity",
          "type": "uint256"
        },
        {
          "internalType": "uint8",
          "name": "_wlCount",
          "type": "uint8"
        },
        {
          "internalType": "bytes32[]",
          "name": "_merkleProof",
          "type": "bytes32[]"
        }
      ],
      "name": "secondMint",
      "outputs": [],
      "stateMutability": "payable",
      "type": "function"
    },
    {
      "inputs": [],
      "name": "seondSaleMaxMintPerAddress",
      "outputs": [
        {
          "internalType": "uint256",
          "name": "",
          "type": "uint256"
        }
      ],
      "stateMutability": "view",
      "type": "function"
    },
    {
      "inputs": [
        {
          "internalType": "address",
          "name": "operator",
          "type": "address"
        },
        {
          "internalType": "bool",
          "name": "approved",
          "type": "bool"
        }
      ],
      "name": "setApprovalForAll",
      "outputs": [],
      "stateMutability": "nonpayable",
      "type": "function"
    },
    {
      "inputs": [
        {
          "internalType": "string",
          "name": "BaseExtention_",
          "type": "string"
        }
      ],
      "name": "setBaseExtention",
      "outputs": [],
      "stateMutability": "nonpayable",
      "type": "function"
    },
    {
      "inputs": [
        {
          "internalType": "string",
          "name": "baseURI",
          "type": "string"
        }
      ],
      "name": "setBaseURI",
      "outputs": [],
      "stateMutability": "nonpayable",
      "type": "function"
    },
    {
      "inputs": [
        {
          "internalType": "uint256",
          "name": "collectionSize_",
          "type": "uint256"
        }
      ],
      "name": "setCollectionSize",
      "outputs": [],
      "stateMutability": "nonpayable",
      "type": "function"
    },
    {
      "inputs": [
        {
          "internalType": "bytes32",
          "name": "_merkleRoot",
          "type": "bytes32"
        }
      ],
      "name": "setMerkleRoot",
      "outputs": [],
      "stateMutability": "nonpayable",
      "type": "function"
    },
    {
      "inputs": [
        {
          "internalType": "string",
          "name": "beforeRevealURL",
          "type": "string"
        }
      ],
      "name": "setNotRevealedUri",
      "outputs": [],
      "stateMutability": "nonpayable",
      "type": "function"
    },
    {
      "inputs": [
        {
          "internalType": "uint64",
          "name": "preCost_",
          "type": "uint64"
        }
      ],
      "name": "setPreCost",
      "outputs": [],
      "stateMutability": "nonpayable",
      "type": "function"
    },
    {
      "inputs": [
        {
          "internalType": "string",
          "name": "premiumBeforeRevealUri_",
          "type": "string"
        }
      ],
      "name": "setPremiumBeforeRevealUri",
      "outputs": [],
      "stateMutability": "nonpayable",
      "type": "function"
    },
    {
      "inputs": [
        {
          "internalType": "uint256",
          "name": "premiumNo_",
          "type": "uint256"
        }
      ],
      "name": "setPremiumNo",
      "outputs": [],
      "stateMutability": "nonpayable",
      "type": "function"
    },
    {
      "inputs": [
        {
          "internalType": "uint64",
          "name": "publicCost_",
          "type": "uint64"
        }
      ],
      "name": "setPublicCost",
      "outputs": [],
      "stateMutability": "nonpayable",
      "type": "function"
    },
    {
      "inputs": [
        {
          "internalType": "bool",
          "name": "reveal_",
          "type": "bool"
        }
      ],
      "name": "setReveal",
      "outputs": [],
      "stateMutability": "nonpayable",
      "type": "function"
    },
    {
      "inputs": [
        {
          "internalType": "uint256",
          "name": "saleStartTime1st_",
          "type": "uint256"
        }
      ],
      "name": "setSaleStartTime1st",
      "outputs": [],
      "stateMutability": "nonpayable",
      "type": "function"
    },
    {
      "inputs": [
        {
          "internalType": "uint256",
          "name": "saleStartTime2nd_",
          "type": "uint256"
        }
      ],
      "name": "setSaleStartTime2nd",
      "outputs": [],
      "stateMutability": "nonpayable",
      "type": "function"
    },
    {
      "inputs": [
        {
          "internalType": "uint256",
          "name": "saleStartTimePublic_",
          "type": "uint256"
        }
      ],
      "name": "setSaleStartTimePublic",
      "outputs": [],
      "stateMutability": "nonpayable",
      "type": "function"
    },
    {
      "inputs": [
        {
          "internalType": "address",
          "name": "_teamAddress",
          "type": "address"
        }
      ],
      "name": "setTeam",
      "outputs": [],
      "stateMutability": "nonpayable",
      "type": "function"
    },
    {
      "inputs": [
        {
          "internalType": "bytes4",
          "name": "interfaceId",
          "type": "bytes4"
        }
      ],
      "name": "supportsInterface",
      "outputs": [
        {
          "internalType": "bool",
          "name": "",
          "type": "bool"
        }
      ],
      "stateMutability": "view",
      "type": "function"
    },
    {
      "inputs": [],
      "name": "symbol",
      "outputs": [
        {
          "internalType": "string",
          "name": "",
          "type": "string"
        }
      ],
      "stateMutability": "view",
      "type": "function"
    },
    {
      "inputs": [
        {
          "internalType": "uint256",
          "name": "tokenId",
          "type": "uint256"
        }
      ],
      "name": "tokenURI",
      "outputs": [
        {
          "internalType": "string",
          "name": "",
          "type": "string"
        }
      ],
      "stateMutability": "view",
      "type": "function"
    },
    {
      "inputs": [],
      "name": "totalSupply",
      "outputs": [
        {
          "internalType": "uint256",
          "name": "",
          "type": "uint256"
        }
      ],
      "stateMutability": "view",
      "type": "function"
    },
    {
      "inputs": [
        {
          "internalType": "address",
          "name": "from",
          "type": "address"
        },
        {
          "internalType": "address",
          "name": "to",
          "type": "address"
        },
        {
          "internalType": "uint256",
          "name": "tokenId",
          "type": "uint256"
        }
      ],
      "name": "transferFrom",
      "outputs": [],
      "stateMutability": "nonpayable",
      "type": "function"
    },
    {
      "inputs": [
        {
          "internalType": "address",
          "name": "newOwner",
          "type": "address"
        }
      ],
      "name": "transferOwnership",
      "outputs": [],
      "stateMutability": "nonpayable",
      "type": "function"
    },
    {
      "inputs": [],
      "name": "unpause",
      "outputs": [],
      "stateMutability": "nonpayable",
      "type": "function"
    },
    {
      "inputs": [
        {
          "internalType": "address",
          "name": "",
          "type": "address"
        }
      ],
      "name": "whiteListClaimed",
      "outputs": [
        {
          "internalType": "uint256",
          "name": "",
          "type": "uint256"
        }
      ],
      "stateMutability": "view",
      "type": "function"
    },
    {
      "inputs": [],
      "name": "withdraw",
      "outputs": [],
      "stateMutability": "nonpayable",
      "type": "function"
    }
  ],
  "bytecode": "0x600980546001600160a01b03191673a59942593286a215c5f39f94714496608a66f5e81790556108ae600a55600b8054676a94d74f4300000f6001600160481b03199091161790556002600c556003600d55600e80546001600160401b031916668e1bc9bf0400001790556363834330600f556363835f5060105563638494b06011556014805460ff19169055600160155560e06040526030608081815290620039f960a039601690620000b4908262000836565b5060405180606001604052806030815260200162003a2960309139601790620000de908262000836565b50604080518082019091526005815264173539b7b760d91b60208201526018906200010a908262000836565b503480156200011857600080fd5b5060405162003a7938038062003a798339810160408190526200013b91620009b9565b733cc6cdda760b79bafa08df41ecfa224f810dceb660018383600262000162838262000836565b50600362000171828262000836565b506000805550506008805460ff191690556200018d3362000312565b6daaeb6d7670e522a718067333cd4e3b15620002d25780156200022057604051633e9f1edf60e11b81523060048201526001600160a01b03831660248201526daaeb6d7670e522a718067333cd4e90637d3e3dbe906044015b600060405180830381600087803b1580156200020157600080fd5b505af115801562000216573d6000803e3d6000fd5b50505050620002d2565b6001600160a01b03821615620002715760405163a0af290360e01b81523060048201526001600160a01b03831660248201526daaeb6d7670e522a718067333cd4e9063a0af290390604401620001e6565b604051632210724360e11b81523060048201526daaeb6d7670e522a718067333cd4e90634420e48690602401600060405180830381600087803b158015620002b857600080fd5b505af1158015620002cd573d6000803e3d6000fd5b505050505b5050604051806080016040528060568152602001620039a360569139601990620002fd908262000836565b506200030a60016200036c565b505062000ad4565b600880546001600160a01b03838116610100818102610100600160a81b031985161790945560405193909204169182907f8be0079c531659141344cd1fd0a4f28419497f9722a3daafe3b4186f6b6457e090600090a35050565b323314620003c15760405162461bcd60e51b815260206004820152601e60248201527f5468652063616c6c657220697320616e6f7468657220636f6e7472616374000060448201526064015b60405180910390fd5b620003cb6200043b565b600a5481620003dd6001546000540390565b620003e9919062000a23565b11156200042c5760405162461bcd60e51b815260206004820152601060248201526f26b4b73a1030b6b7bab73a1037bb32b960811b6044820152606401620003b8565b6200043833826200049f565b50565b6008546001600160a01b036101009091041633146200049d5760405162461bcd60e51b815260206004820181905260248201527f4f776e61626c653a2063616c6c6572206973206e6f7420746865206f776e65726044820152606401620003b8565b565b620004c1828260405180602001604052806000815250620004c560201b60201c565b5050565b6000546001600160a01b038416620004ef57604051622e076360e81b815260040160405180910390fd5b82600003620005115760405163b562e8dd60e01b815260040160405180910390fd5b6001600160a01b038416600081815260056020908152604080832080546001600160801b031981166001600160401b038083168b018116918217680100000000000000006001600160401b031990941690921783900481168b0181169092021790915585845260048352922080546001600160e01b0319168417600160a01b429094169390930292909217909155829182860191620005ba91906200068e811b62001a3917901c565b1562000639575b60405182906001600160a01b0388169060009060008051602062003a59833981519152908290a46001820191620005fe906000908890876200069d565b6200061c576040516368d2bf6b60e11b815260040160405180910390fd5b808210620005c15782600054146200063357600080fd5b6200066e565b5b6040516001830192906001600160a01b0388169060009060008051602062003a59833981519152908290a48082106200063a575b50600090815562000688908583866001600160e01b038516565b50505050565b6001600160a01b03163b151590565b604051630a85bd0160e11b81526000906001600160a01b0385169063150b7a0290620006d490339089908890889060040162000a4b565b6020604051808303816000875af192505050801562000712575060408051601f3d908101601f191682019092526200070f9181019062000aa1565b60015b62000774573d80801562000743576040519150601f19603f3d011682016040523d82523d6000602084013e62000748565b606091505b5080516000036200076c576040516368d2bf6b60e11b815260040160405180910390fd5b805181602001fd5b6001600160e01b031916630a85bd0160e11b149050949350505050565b634e487b7160e01b600052604160045260246000fd5b600181811c90821680620007bc57607f821691505b602082108103620007dd57634e487b7160e01b600052602260045260246000fd5b50919050565b601f8211156200083157600081815260208120601f850160051c810160208610156200080c5750805b601f850160051c820191505b818110156200082d5782815560010162000818565b5050505b505050565b81516001600160401b0381111562000852576200085262000791565b6200086a81620008638454620007a7565b84620007e3565b602080601f831160018114620008a25760008415620008895750858301515b600019600386901b1c1916600185901b1785556200082d565b600085815260208120601f198616915b82811015620008d357888601518255948401946001909101908401620008b2565b5085821015620008f25787850151600019600388901b60f8161c191681555b5050505050600190811b01905550565b60005b838110156200091f57818101518382015260200162000905565b50506000910152565b600082601f8301126200093a57600080fd5b81516001600160401b038082111562000957576200095762000791565b604051601f8301601f19908116603f0116810190828211818310171562000982576200098262000791565b816040528381528660208588010111156200099c57600080fd5b620009af84602083016020890162000902565b9695505050505050565b60008060408385031215620009cd57600080fd5b82516001600160401b0380821115620009e557600080fd5b620009f38683870162000928565b9350602085015191508082111562000a0a57600080fd5b5062000a198582860162000928565b9150509250929050565b8082018082111562000a4557634e487b7160e01b600052601160045260246000fd5b92915050565b600060018060a01b03808716835280861660208401525083604083015260806060830152825180608084015262000a8a8160a085016020870162000902565b601f01601f19169190910160a00195945050505050565b60006020828403121562000ab457600080fd5b81516001600160e01b03198116811462000acd57600080fd5b9392505050565b612ebf8062000ae46000396000f3fe60806040526004361061031a5760003560e01c80635c975abb116101ab578063a22cb465116100f7578063c87b56dd11610095578063f2a855801161006f578063f2a85580146108fa578063f2fde38b1461091a578063fa9160ad1461093a578063ff9e01581461095a57600080fd5b8063c87b56dd1461089a578063e985e9c5146108ba578063f19e75d4146108da57600080fd5b8063b3e8c8d2116100d1578063b3e8c8d21461081f578063b6374e3514610835578063b88d4fde1461085a578063c17ecd121461087a57600080fd5b8063a22cb465146107b3578063a40d36cd146107d3578063aca8ffe7146107ff57600080fd5b80637cb64759116101645780638693da201161013e5780638693da20146107235780638da5cb5b1461075b57806395d89b411461077e57806396e4bfce1461079357600080fd5b80637cb64759146106d85780638456cb59146106f8578063852059331461070d57600080fd5b80635c975abb1461062b5780636352211e14610643578063642242641461066357806370a0823114610683578063715018a6146106a3578063779273cf146106b857600080fd5b8063369ae7e51161026a5780634987b3bc1161022357806351830227116101fd57806351830227146105bb57806354f2cb45146105d557806355f804b3146105eb5780635c1d8b2f1461060b57600080fd5b80634987b3bc146105725780634d533d73146105925780634d8d6b08146105a857600080fd5b8063369ae7e5146104dc5780633ccfd60b146104f25780633d96bd25146105075780633f4ba83a1461052757806342842e0e1461053c57806345c0f5331461055c57600080fd5b8063188ec356116102d75780632a3f300c116102b15780632a3f300c146104735780632db11544146104935780632eb4a7ab146104a65780633447e431146104bc57600080fd5b8063188ec356146104135780632333f3c41461042657806323b872dd1461045357600080fd5b806301ffc9a71461031f57806306fdde0314610354578063081812fc14610376578063095cf5c6146103ae578063095ea7b3146103d057806318160ddd146103f0575b600080fd5b34801561032b57600080fd5b5061033f61033a36600461268c565b61096d565b60405190151581526020015b60405180910390f35b34801561036057600080fd5b506103696109bf565b60405161034b91906126f9565b34801561038257600080fd5b5061039661039136600461270c565b610a51565b6040516001600160a01b03909116815260200161034b565b3480156103ba57600080fd5b506103ce6103c9366004612741565b610a95565b005b3480156103dc57600080fd5b506103ce6103eb36600461275c565b610abf565b3480156103fc57600080fd5b50600154600054035b60405190815260200161034b565b34801561041f57600080fd5b5042610405565b34801561043257600080fd5b50610405610441366004612741565b60136020526000908152604090205481565b34801561045f57600080fd5b506103ce61046e366004612786565b610b45565b34801561047f57600080fd5b506103ce61048e3660046127d0565b610caa565b6103ce6104a136600461270c565b610cc5565b3480156104b257600080fd5b5061040560125481565b3480156104c857600080fd5b5061033f6104d7366004612849565b610d9a565b3480156104e857600080fd5b50610405600f5481565b3480156104fe57600080fd5b506103ce610e77565b34801561051357600080fd5b506103ce61052236600461270c565b610ee2565b34801561053357600080fd5b506103ce610eef565b34801561054857600080fd5b506103ce610557366004612786565b610f01565b34801561056857600080fd5b50610405600a5481565b34801561057e57600080fd5b506103ce61058d36600461289b565b611056565b34801561059e57600080fd5b50610405600c5481565b6103ce6105b636600461290c565b61106b565b3480156105c757600080fd5b5060145461033f9060ff1681565b3480156105e157600080fd5b50610405600d5481565b3480156105f757600080fd5b506103ce61060636600461289b565b6112f2565b34801561061757600080fd5b506103ce61062636600461270c565b611307565b34801561063757600080fd5b5060085460ff1661033f565b34801561064f57600080fd5b5061039661065e36600461270c565b611314565b34801561066f57600080fd5b506103ce61067e36600461289b565b611326565b34801561068f57600080fd5b5061040561069e366004612741565b61133b565b3480156106af57600080fd5b506103ce611389565b3480156106c457600080fd5b506103ce6106d336600461270c565b61139b565b3480156106e457600080fd5b506103ce6106f336600461270c565b6113a8565b34801561070457600080fd5b506103ce6113b5565b34801561071957600080fd5b5061040560115481565b34801561072f57600080fd5b50600e54610743906001600160401b031681565b6040516001600160401b03909116815260200161034b565b34801561076757600080fd5b5060085461010090046001600160a01b0316610396565b34801561078a57600080fd5b506103696113c5565b34801561079f57600080fd5b506103ce6107ae366004612965565b6113d4565b3480156107bf57600080fd5b506103ce6107ce36600461298e565b6113ff565b3480156107df57600080fd5b50600b546107ed9060ff1681565b60405160ff909116815260200161034b565b34801561080b57600080fd5b506103ce61081a36600461270c565b611494565b34801561082b57600080fd5b5061040560105481565b34801561084157600080fd5b50600b546107439061010090046001600160401b031681565b34801561086657600080fd5b506103ce6108753660046129db565b6114f7565b34801561088657600080fd5b506103ce61089536600461289b565b61165a565b3480156108a657600080fd5b506103696108b536600461270c565b61166f565b3480156108c657600080fd5b5061033f6108d5366004612ab6565b6117c8565b3480156108e657600080fd5b506103ce6108f536600461270c565b6117f6565b34801561090657600080fd5b506103ce610915366004612965565b611883565b34801561092657600080fd5b506103ce610935366004612741565b6118b4565b34801561094657600080fd5b506103ce61095536600461270c565b61192a565b6103ce61096836600461290c565b611937565b60006001600160e01b031982166380ac58cd60e01b148061099e57506001600160e01b03198216635b5e139f60e01b145b806109b957506301ffc9a760e01b6001600160e01b03198316145b92915050565b6060600280546109ce90612ae9565b80601f01602080910402602001604051908101604052809291908181526020018280546109fa90612ae9565b8015610a475780601f10610a1c57610100808354040283529160200191610a47565b820191906000526020600020905b815481529060010190602001808311610a2a57829003601f168201915b5050505050905090565b6000610a5c82611a48565b610a79576040516333d1c03960e21b815260040160405180910390fd5b506000908152600660205260409020546001600160a01b031690565b610a9d611a73565b600980546001600160a01b0319166001600160a01b0392909216919091179055565b6000610aca82611314565b9050806001600160a01b0316836001600160a01b031603610afe5760405163250fdee360e21b815260040160405180910390fd5b336001600160a01b03821614610b3557610b1881336117c8565b610b35576040516367d9dca160e11b815260040160405180910390fd5b610b40838383611ad3565b505050565b826daaeb6d7670e522a718067333cd4e3b15610c9957336001600160a01b03821603610b7b57610b76848484611b2f565b610ca4565b604051633185c44d60e21b81523060048201523360248201526daaeb6d7670e522a718067333cd4e9063c6171134906044016020604051808303816000875af1158015610bcc573d6000803e3d6000fd5b505050506040513d601f19601f82011682018060405250810190610bf09190612b23565b8015610c755750604051633185c44d60e21b81523060048201526001600160a01b03821660248201526daaeb6d7670e522a718067333cd4e9063c6171134906044016020604051808303816000875af1158015610c51573d6000803e3d6000fd5b505050506040513d601f19601f82011682018060405250810190610c759190612b23565b610c9957604051633b79c77360e21b81523360048201526024015b60405180910390fd5b610ca4848484611b2f565b50505050565b610cb2611a73565b6014805460ff1916911515919091179055565b323314610ce45760405162461bcd60e51b8152600401610c9090612b40565b600e54610d06908290610d019082906001600160401b0316612b8d565b611b3a565b601154421015610d585760405162461bcd60e51b815260206004820152601f60248201527f5075626c69632053616c6520686173206e6f74207374617274656420796574006044820152606401610c90565b610d623382611cab565b60405181815233907f30385c845b448a36257a6a1716e6ad2e1bc2cbe333cde1e69fe849ad6511adfe9060200160405180910390a250565b6000323314610dbb5760405162461bcd60e51b8152600401610c9090612b40565b60003385604051602001610dd0929190612ba4565b604051602081830303815290604052805190602001209050610e29848480806020026020016040519081016040528093929190818152602001838360200280828437600092019190915250506012549150849050611cc5565b610e6c5760405162461bcd60e51b815260206004820152601460248201527324b73b30b634b21026b2b935b63290283937b7b360611b6044820152606401610c90565b506001949350505050565b610e7f611a73565b6009546040516000916001600160a01b03169047908381818185875af1925050503d8060008114610ecc576040519150601f19603f3d011682016040523d82523d6000602084013e610ed1565b606091505b5050905080610edf57600080fd5b50565b610eea611a73565b600f55565b610ef7611a73565b610eff611cdb565b565b826daaeb6d7670e522a718067333cd4e3b1561104b57336001600160a01b03821603610f3257610b76848484611d2d565b604051633185c44d60e21b81523060048201523360248201526daaeb6d7670e522a718067333cd4e9063c6171134906044016020604051808303816000875af1158015610f83573d6000803e3d6000fd5b505050506040513d601f19601f82011682018060405250810190610fa79190612b23565b801561102c5750604051633185c44d60e21b81523060048201526001600160a01b03821660248201526daaeb6d7670e522a718067333cd4e9063c6171134906044016020604051808303816000875af1158015611008573d6000803e3d6000fd5b505050506040513d601f19601f8201168201806040525081019061102c9190612b23565b61104b57604051633b79c77360e21b8152336004820152602401610c90565b610ca4848484611d2d565b61105e611a73565b6018610b40828483612c21565b32331461108a5760405162461bcd60e51b8152600401610c9090612b40565b600b546110ac908590610d0190829061010090046001600160401b0316612b8d565b600f544210156110fe5760405162461bcd60e51b815260206004820152601f60248201527f414c203173742053616c6520686173206e6f74207374617274656420796574006044820152606401610c90565b600c5461110e9060ff8516612b8d565b84111561115d5760405162461bcd60e51b815260206004820181905260248201527f3173742073616c652063616e206f6e6c792032206d696e74207065722031414c6044820152606401610c90565b600c5461116d9060ff8516612b8d565b33600090815260136020526040902054611188908690612ce0565b11156111d65760405162461bcd60e51b815260206004820152601f60248201527f416c726561647920636c61696d6564206d617820696e203173742053616c65006044820152606401610c90565b600033846040516020016111eb929190612ba4565b604051602081830303815290604052805190602001209050611244838380806020026020016040519081016040528093929190818152602001838360200280828437600092019190915250506012549150849050611cc5565b6112875760405162461bcd60e51b815260206004820152601460248201527324b73b30b634b21026b2b935b63290283937b7b360611b6044820152606401610c90565b33600090815260136020526040812080548792906112a6908490612ce0565b909155506112b690503386611cab565b60405185815233907f30385c845b448a36257a6a1716e6ad2e1bc2cbe333cde1e69fe849ad6511adfe9060200160405180910390a25050505050565b6112fa611a73565b6019610b40828483612c21565b61130f611a73565b601555565b600061131f82611d48565b5192915050565b61132e611a73565b6016610b40828483612c21565b60006001600160a01b038216611364576040516323d3ad8160e21b815260040160405180910390fd5b506001600160a01b03166000908152600560205260409020546001600160401b031690565b611391611a73565b610eff6000611e62565b6113a3611a73565b601055565b6113b0611a73565b601255565b6113bd611a73565b610eff611ebc565b6060600380546109ce90612ae9565b6113dc611a73565b600e805467ffffffffffffffff19166001600160401b0392909216919091179055565b336001600160a01b038316036114285760405163b06307db60e01b815260040160405180910390fd5b3360008181526007602090815260408083206001600160a01b03871680855290835292819020805460ff191686151590811790915590519081529192917f17307eab39ab6107e8899845ad3d59bd9653f200f220920489ca2b5937696c31910160405180910390a35050565b61149c611a73565b600154600054038110156114f25760405162461bcd60e51b815260206004820152601c60248201527f436f6c6c656374696f6e2073697a6520697320746f6f20736d616c6c000000006044820152606401610c90565b600a55565b836daaeb6d7670e522a718067333cd4e3b1561164757336001600160a01b0382160361152e5761152985858585611ef9565b611653565b604051633185c44d60e21b81523060048201523360248201526daaeb6d7670e522a718067333cd4e9063c6171134906044016020604051808303816000875af115801561157f573d6000803e3d6000fd5b505050506040513d601f19601f820116820180604052508101906115a39190612b23565b80156116285750604051633185c44d60e21b81523060048201526001600160a01b03821660248201526daaeb6d7670e522a718067333cd4e9063c6171134906044016020604051808303816000875af1158015611604573d6000803e3d6000fd5b505050506040513d601f19601f820116820180604052508101906116289190612b23565b61164757604051633b79c77360e21b8152336004820152602401610c90565b61165385858585611ef9565b5050505050565b611662611a73565b6017610b40828483612c21565b606061167a82611a48565b6116de5760405162461bcd60e51b815260206004820152602f60248201527f4552433732314d657461646174613a2055524920717565727920666f72206e6f60448201526e3732bc34b9ba32b73a103a37b5b2b760891b6064820152608401610c90565b60145460ff16151560000361179657601554821015611789576016805461170490612ae9565b80601f016020809104026020016040519081016040528092919081815260200182805461173090612ae9565b801561177d5780601f106117525761010080835404028352916020019161177d565b820191906000526020600020905b81548152906001019060200180831161176057829003601f168201915b50505050509050919050565b6017805461170490612ae9565b61179f82611f3d565b60186040516020016117b2929190612cf3565b6040516020818303038152906040529050919050565b6001600160a01b03918216600090815260076020908152604080832093909416825291909152205460ff1690565b3233146118155760405162461bcd60e51b8152600401610c9090612b40565b61181d611a73565b600a548161182e6001546000540390565b6118389190612ce0565b11156118795760405162461bcd60e51b815260206004820152601060248201526f26b4b73a1030b6b7bab73a1037bb32b960811b6044820152606401610c90565b610edf3382611cab565b61188b611a73565b600b80546001600160401b039092166101000268ffffffffffffffff0019909216919091179055565b6118bc611a73565b6001600160a01b0381166119215760405162461bcd60e51b815260206004820152602660248201527f4f776e61626c653a206e6577206f776e657220697320746865207a65726f206160448201526564647265737360d01b6064820152608401610c90565b610edf81611e62565b611932611a73565b601155565b3233146119565760405162461bcd60e51b8152600401610c9090612b40565b600b54611978908590610d0190829061010090046001600160401b0316612b8d565b6010544210156119ca5760405162461bcd60e51b815260206004820152601f60248201527f414c20326e642053616c6520686173206e6f74207374617274656420796574006044820152606401610c90565b600d546119da9060ff8516612b8d565b336000908152601360205260409020546119f5908690612ce0565b11156111d65760405162461bcd60e51b8152602060048201526013602482015272082d8e4cac2c8f240c6d8c2d2dacac840dac2f606b1b6044820152606401610c90565b6001600160a01b03163b151590565b60008054821080156109b9575050600090815260046020526040902054600160e01b900460ff161590565b6008546001600160a01b03610100909104163314610eff5760405162461bcd60e51b815260206004820181905260248201527f4f776e61626c653a2063616c6c6572206973206e6f7420746865206f776e65726044820152606401610c90565b60008281526006602052604080822080546001600160a01b0319166001600160a01b0387811691821790925591518593918516917f8c5be1e5ebec7d5bd14f71427d1e84f3dd0314c0f7b2291e5b200ac8c7c3b92591a4505050565b610b40838383611fc1565b611b426121ac565b60008211611b9e5760405162461bcd60e51b8152602060048201526024808201527f4d696e74207175616e74697479206d75737420626520677265617465722074686044820152630616e20360e41b6064820152608401610c90565b600b5460ff16821115611c035760405162461bcd60e51b815260206004820152602760248201527f4d696e74206c696d697420657863656564656420666f72206f6e65207472616e60448201526639b0b1ba34b7b760c91b6064820152608401610c90565b600a5482611c146001546000540390565b611c1e9190612ce0565b1115611c5f5760405162461bcd60e51b815260206004820152601060248201526f26b4b73a1030b6b7bab73a1037bb32b960811b6044820152606401610c90565b803414611ca75760405162461bcd60e51b8152602060048201526016602482015275135a5b9d0818dbdcdd081a5cc81a5b98dbdc9c9958dd60521b6044820152606401610c90565b5050565b611ca78282604051806020016040528060008152506121f2565b600082611cd285846123b9565b14949350505050565b611ce3612406565b6008805460ff191690557f5db9ee0a495bf2e6ff9c91a7834c1ba4fdd244a5e8aa4e537bd38aeae4b073aa335b6040516001600160a01b03909116815260200160405180910390a1565b610b40838383604051806020016040528060008152506114f7565b604080516060810182526000808252602082018190529181019190915281600054811015611e4957600081815260046020908152604091829020825160608101845290546001600160a01b0381168252600160a01b81046001600160401b031692820192909252600160e01b90910460ff16151591810182905290611e475780516001600160a01b031615611dde579392505050565b5060001901600081815260046020908152604091829020825160608101845290546001600160a01b038116808352600160a01b82046001600160401b031693830193909352600160e01b900460ff1615159281019290925215611e42579392505050565b611dde565b505b604051636f96cda160e11b815260040160405180910390fd5b600880546001600160a01b03838116610100818102610100600160a81b031985161790945560405193909204169182907f8be0079c531659141344cd1fd0a4f28419497f9722a3daafe3b4186f6b6457e090600090a35050565b611ec46121ac565b6008805460ff191660011790557f62e78cea01bee320cd4e420270b5ea74000d11b0c9f74754ebdbfc544b05a258611d103390565b611f04848484611fc1565b6001600160a01b0383163b15610ca457611f208484848461244f565b610ca4576040516368d2bf6b60e11b815260040160405180910390fd5b6060611f4882611a48565b611f6557604051630a14c4b560e41b815260040160405180910390fd5b6000611f6f61253b565b90508051600003611f8f5760405180602001604052806000815250611fba565b80611f998461254a565b604051602001611faa929190612d80565b6040516020818303038152906040525b9392505050565b6000611fcc82611d48565b9050836001600160a01b031681600001516001600160a01b0316146120035760405162a1148160e81b815260040160405180910390fd5b6000336001600160a01b0386161480612021575061202185336117c8565b8061203c57503361203184610a51565b6001600160a01b0316145b90508061205c57604051632ce44b5f60e11b815260040160405180910390fd5b6001600160a01b03841661208357604051633a954ecd60e21b815260040160405180910390fd5b61208f60008487611ad3565b6001600160a01b038581166000908152600560209081526040808320805467ffffffffffffffff198082166001600160401b0392831660001901831617909255898616808652838620805493841693831660019081018416949094179055898652600490945282852080546001600160e01b031916909417600160a01b4290921691909102178355870180845292208054919390911661216357600054821461216357805460208601516001600160401b0316600160a01b026001600160e01b03199091166001600160a01b038a16171781555b50505082846001600160a01b0316866001600160a01b03167fddf252ad1be2c89b69c2b068fc378daa952ba7f163c4a11628f55a4df523b3ef60405160405180910390a4611653565b60085460ff1615610eff5760405162461bcd60e51b815260206004820152601060248201526f14185d5cd8589b194e881c185d5cd95960821b6044820152606401610c90565b6000546001600160a01b03841661221b57604051622e076360e81b815260040160405180910390fd5b8260000361223c5760405163b562e8dd60e01b815260040160405180910390fd5b6001600160a01b038416600081815260056020908152604080832080546fffffffffffffffffffffffffffffffff1981166001600160401b038083168b0181169182176801000000000000000067ffffffffffffffff1990941690921783900481168b01811690920217909155858452600490925290912080546001600160e01b0319168317600160a01b42909316929092029190911790558190818501903b15612364575b60405182906001600160a01b038816906000907fddf252ad1be2c89b69c2b068fc378daa952ba7f163c4a11628f55a4df523b3ef908290a461232d600087848060010195508761244f565b61234a576040516368d2bf6b60e11b815260040160405180910390fd5b8082106122e257826000541461235f57600080fd5b6123a9565b5b6040516001830192906001600160a01b038816906000907fddf252ad1be2c89b69c2b068fc378daa952ba7f163c4a11628f55a4df523b3ef908290a4808210612365575b506000908155610ca49085838684565b600081815b84518110156123fe576123ea828683815181106123dd576123dd612daf565b602002602001015161264a565b9150806123f681612dc5565b9150506123be565b509392505050565b60085460ff16610eff5760405162461bcd60e51b815260206004820152601460248201527314185d5cd8589b194e881b9bdd081c185d5cd95960621b6044820152606401610c90565b604051630a85bd0160e11b81526000906001600160a01b0385169063150b7a0290612484903390899088908890600401612dde565b6020604051808303816000875af19250505080156124bf575060408051601f3d908101601f191682019092526124bc91810190612e1b565b60015b61251d573d8080156124ed576040519150601f19603f3d011682016040523d82523d6000602084013e6124f2565b606091505b508051600003612515576040516368d2bf6b60e11b815260040160405180910390fd5b805181602001fd5b6001600160e01b031916630a85bd0160e11b1490505b949350505050565b6060601980546109ce90612ae9565b6060816000036125715750506040805180820190915260018152600360fc1b602082015290565b8160005b811561259b578061258581612dc5565b91506125949050600a83612e4e565b9150612575565b6000816001600160401b038111156125b5576125b56129c5565b6040519080825280601f01601f1916602001820160405280156125df576020820181803683370190505b5090505b8415612533576125f4600183612e62565b9150612601600a86612e75565b61260c906030612ce0565b60f81b81838151811061262157612621612daf565b60200101906001600160f81b031916908160001a905350612643600a86612e4e565b94506125e3565b6000818310612666576000828152602084905260409020611fba565b5060009182526020526040902090565b6001600160e01b031981168114610edf57600080fd5b60006020828403121561269e57600080fd5b8135611fba81612676565b60005b838110156126c45781810151838201526020016126ac565b50506000910152565b600081518084526126e58160208601602086016126a9565b601f01601f19169290920160200192915050565b602081526000611fba60208301846126cd565b60006020828403121561271e57600080fd5b5035919050565b80356001600160a01b038116811461273c57600080fd5b919050565b60006020828403121561275357600080fd5b611fba82612725565b6000806040838503121561276f57600080fd5b61277883612725565b946020939093013593505050565b60008060006060848603121561279b57600080fd5b6127a484612725565b92506127b260208501612725565b9150604084013590509250925092565b8015158114610edf57600080fd5b6000602082840312156127e257600080fd5b8135611fba816127c2565b803560ff8116811461273c57600080fd5b60008083601f84011261281057600080fd5b5081356001600160401b0381111561282757600080fd5b6020830191508360208260051b850101111561284257600080fd5b9250929050565b60008060006040848603121561285e57600080fd5b612867846127ed565b925060208401356001600160401b0381111561288257600080fd5b61288e868287016127fe565b9497909650939450505050565b600080602083850312156128ae57600080fd5b82356001600160401b03808211156128c557600080fd5b818501915085601f8301126128d957600080fd5b8135818111156128e857600080fd5b8660208285010111156128fa57600080fd5b60209290920196919550909350505050565b6000806000806060858703121561292257600080fd5b84359350612932602086016127ed565b925060408501356001600160401b0381111561294d57600080fd5b612959878288016127fe565b95989497509550505050565b60006020828403121561297757600080fd5b81356001600160401b0381168114611fba57600080fd5b600080604083850312156129a157600080fd5b6129aa83612725565b915060208301356129ba816127c2565b809150509250929050565b634e487b7160e01b600052604160045260246000fd5b600080600080608085870312156129f157600080fd5b6129fa85612725565b9350612a0860208601612725565b92506040850135915060608501356001600160401b0380821115612a2b57600080fd5b818701915087601f830112612a3f57600080fd5b813581811115612a5157612a516129c5565b604051601f8201601f19908116603f01168101908382118183101715612a7957612a796129c5565b816040528281528a6020848701011115612a9257600080fd5b82602086016020830137600060208483010152809550505050505092959194509250565b60008060408385031215612ac957600080fd5b612ad283612725565b9150612ae060208401612725565b90509250929050565b600181811c90821680612afd57607f821691505b602082108103612b1d57634e487b7160e01b600052602260045260246000fd5b50919050565b600060208284031215612b3557600080fd5b8151611fba816127c2565b6020808252601e908201527f5468652063616c6c657220697320616e6f7468657220636f6e74726163740000604082015260600190565b634e487b7160e01b600052601160045260246000fd5b80820281158282048414176109b9576109b9612b77565b60609290921b6bffffffffffffffffffffffff1916825260f81b6001600160f81b031916601482015260150190565b601f821115610b4057600081815260208120601f850160051c81016020861015612bfa5750805b601f850160051c820191505b81811015612c1957828155600101612c06565b505050505050565b6001600160401b03831115612c3857612c386129c5565b612c4c83612c468354612ae9565b83612bd3565b6000601f841160018114612c805760008515612c685750838201355b600019600387901b1c1916600186901b178355611653565b600083815260209020601f19861690835b82811015612cb15786850135825560209485019460019092019101612c91565b5086821015612cce5760001960f88860031b161c19848701351681555b505060018560011b0183555050505050565b808201808211156109b9576109b9612b77565b600083516020612d0682858389016126a9565b818401915060008554612d1881612ae9565b60018281168015612d305760018114612d4557612d71565b60ff1984168752821515830287019450612d71565b896000528560002060005b84811015612d6957815489820152908301908701612d50565b505082870194505b50929998505050505050505050565b60008351612d928184602088016126a9565b835190830190612da68183602088016126a9565b01949350505050565b634e487b7160e01b600052603260045260246000fd5b600060018201612dd757612dd7612b77565b5060010190565b6001600160a01b0385811682528416602082015260408101839052608060608201819052600090612e11908301846126cd565b9695505050505050565b600060208284031215612e2d57600080fd5b8151611fba81612676565b634e487b7160e01b600052601260045260246000fd5b600082612e5d57612e5d612e38565b500490565b818103818111156109b9576109b9612b77565b600082612e8457612e84612e38565b50069056fea2646970667358221220de68df74c4711b80d1b8eaa760afa84c90a40bad629228856aff6d6a3dedec6a64736f6c6343000811003368747470733a2f2f6d657461646174612e6d6574616b6f7a6f2d64616f2e78797a2f697066732f516d6370736778335a41547245427859384376484378646170427770487a7837537275414e6875514154657669712f61723a2f2f424a4f75676e4b356a555a4c546d4c65534231425362336e72574872713170713868696f6f554471375f6361723a2f2f4834485f547552613650414b782d52386550754351516f37366a506870466f69644e663839356276535a6fddf252ad1be2c89b69c2b068fc378daa952ba7f163c4a11628f55a4df523b3ef",
  "linkReferences": {},
  "deployedLinkReferences": {}
}